{
  "contractName": "Intercambio",
  "abi": [
    {
      "constant": true,
      "inputs": [],
      "name": "contractPaused",
      "outputs": [
        {
          "name": "",
          "type": "bool"
        }
      ],
      "payable": false,
      "stateMutability": "view",
      "type": "function",
      "signature": "0x8a67456a"
    },
    {
      "inputs": [],
      "payable": false,
      "stateMutability": "nonpayable",
      "type": "constructor",
      "signature": "constructor"
    },
    {
      "anonymous": false,
      "inputs": [
        {
          "indexed": false,
          "name": "_owner",
          "type": "address"
        },
        {
          "indexed": false,
          "name": "yup",
          "type": "bool"
        }
      ],
      "name": "mktcreated",
      "type": "event",
      "signature": "0xa942f46f15a2181dac8434a8663f8f23ac45083b5c168818d2dbb49d1b7be2a1"
    },
    {
      "anonymous": false,
      "inputs": [
        {
          "indexed": false,
          "name": "_address",
          "type": "address"
        },
        {
          "indexed": false,
          "name": "_fundAmount",
          "type": "uint256"
        }
      ],
      "name": "studentAccountFunded",
      "type": "event",
      "signature": "0x4537225e7ecda6ee97299ed950f50c0ff209c563c6d9dfb67af5b36c92423774"
    },
    {
      "anonymous": false,
      "inputs": [
        {
          "indexed": false,
          "name": "_address",
          "type": "address"
        },
        {
          "indexed": false,
          "name": "Amount",
          "type": "uint256"
        }
      ],
      "name": "fundsWithdrawn",
      "type": "event",
      "signature": "0x8a43c200a722669df503c8997c4ae4af96d8849cba45c39bccf948d45223e770"
    },
    {
      "constant": false,
      "inputs": [],
      "name": "circuitBreaker",
      "outputs": [],
      "payable": false,
      "stateMutability": "nonpayable",
      "type": "function",
      "signature": "0x16efd941"
    },
    {
      "constant": false,
      "inputs": [
        {
          "name": "_address",
          "type": "address"
        },
        {
          "name": "setRate",
          "type": "uint256"
        }
      ],
      "name": "createTutor",
      "outputs": [
        {
          "name": "",
          "type": "uint256"
        }
      ],
      "payable": true,
      "stateMutability": "payable",
      "type": "function",
      "signature": "0x7d5aefc4"
    },
    {
      "constant": false,
      "inputs": [
        {
          "name": "_address",
          "type": "address"
        }
      ],
      "name": "createStudent",
      "outputs": [
        {
          "name": "",
          "type": "bool"
        }
      ],
      "payable": true,
      "stateMutability": "payable",
      "type": "function",
      "signature": "0xb304517e"
    },
    {
      "constant": false,
      "inputs": [],
      "name": "fundStudentAccount",
      "outputs": [
        {
          "name": "",
          "type": "bool"
        }
      ],
      "payable": true,
      "stateMutability": "payable",
      "type": "function",
      "signature": "0x9ee39b6b"
    },
    {
      "constant": false,
      "inputs": [],
      "name": "studentWithdrawTotalFunds",
      "outputs": [],
      "payable": false,
      "stateMutability": "nonpayable",
      "type": "function",
      "signature": "0xd7ea1c19"
    },
    {
      "constant": false,
      "inputs": [],
      "name": "tutorWithdrawTotalFunds",
      "outputs": [],
      "payable": false,
      "stateMutability": "nonpayable",
      "type": "function",
      "signature": "0xe20eaaf6"
    },
    {
      "constant": false,
      "inputs": [
        {
          "name": "tutor",
          "type": "address"
        },
        {
          "name": "studentStake",
          "type": "uint256"
        }
      ],
      "name": "scheduleLesson",
      "outputs": [
        {
          "name": "",
          "type": "bytes32"
        }
      ],
      "payable": false,
      "stateMutability": "nonpayable",
      "type": "function",
      "signature": "0x6840dc4a"
    },
    {
      "constant": false,
      "inputs": [
        {
          "name": "lessonAddress",
          "type": "bytes32"
        }
      ],
      "name": "tutorConfirmLesson",
      "outputs": [
        {
          "name": "",
          "type": "bool"
        }
      ],
      "payable": false,
      "stateMutability": "nonpayable",
      "type": "function",
      "signature": "0x032f9636"
    },
    {
      "constant": false,
      "inputs": [
        {
          "name": "lessonAddress",
          "type": "bytes32"
        }
      ],
      "name": "studentConfirmLesson",
      "outputs": [
        {
          "name": "",
          "type": "bool"
        }
      ],
      "payable": false,
      "stateMutability": "nonpayable",
      "type": "function",
      "signature": "0xa872d2d3"
    },
    {
      "constant": false,
      "inputs": [
        {
          "name": "lessonAddress",
          "type": "bytes32"
        }
      ],
      "name": "lessonConfirmed",
      "outputs": [
        {
          "name": "",
          "type": "bool"
        }
      ],
      "payable": false,
      "stateMutability": "nonpayable",
      "type": "function",
      "signature": "0xd1197a88"
    },
    {
      "constant": false,
      "inputs": [
        {
          "name": "lesson",
          "type": "bytes32"
        },
        {
          "name": "_receiver",
          "type": "address"
        }
      ],
      "name": "transferFunds",
      "outputs": [
        {
          "name": "",
          "type": "bool"
        }
      ],
      "payable": true,
      "stateMutability": "payable",
      "type": "function",
      "signature": "0xef90cab2"
    },
    {
      "constant": true,
      "inputs": [
        {
          "name": "lessonAddress",
          "type": "bytes32"
        }
      ],
      "name": "getLessonInfo",
      "outputs": [
        {
          "name": "",
          "type": "address"
        },
        {
          "name": "",
          "type": "address"
        },
        {
          "name": "",
          "type": "bytes32"
        },
        {
          "name": "",
          "type": "uint256"
        },
        {
          "name": "",
          "type": "uint256"
        },
        {
          "name": "",
          "type": "bool"
        }
      ],
      "payable": false,
      "stateMutability": "view",
      "type": "function",
      "signature": "0x99d53dc6"
    },
    {
      "constant": true,
      "inputs": [
        {
          "name": "_address",
          "type": "address"
        }
      ],
      "name": "getTutorInfo",
      "outputs": [
        {
          "name": "",
          "type": "uint256"
        },
        {
          "name": "",
          "type": "uint256"
        }
      ],
      "payable": false,
      "stateMutability": "view",
      "type": "function",
      "signature": "0xcbb8547a"
    },
    {
      "constant": true,
      "inputs": [
        {
          "name": "_address",
          "type": "address"
        }
      ],
      "name": "getStudentInfo",
      "outputs": [
        {
          "name": "",
          "type": "address"
        }
      ],
      "payable": false,
      "stateMutability": "view",
      "type": "function",
      "signature": "0x4b82caec"
    },
    {
      "constant": true,
      "inputs": [],
      "name": "getAllTutors",
      "outputs": [
        {
          "name": "",
          "type": "address[]"
        }
      ],
      "payable": false,
      "stateMutability": "view",
      "type": "function",
      "signature": "0x2b8b9c88"
    },
    {
      "constant": true,
      "inputs": [],
      "name": "getAllStudents",
      "outputs": [
        {
          "name": "",
          "type": "address[]"
        }
      ],
      "payable": false,
      "stateMutability": "view",
      "type": "function",
      "signature": "0xe9e30927"
    }
  ],
  "bytecode": "0x60806040526000600860006101000a81548160ff02191690831515021790555034801561002b57600080fd5b50600160025410151561003d57600080fd5b60016000806101000a81548160ff02191690831515021790555033600160006101000a81548173ffffffffffffffffffffffffffffffffffffffff021916908373ffffffffffffffffffffffffffffffffffffffff160217905550600160028190555033600060016101000a81548173ffffffffffffffffffffffffffffffffffffffff021916908373ffffffffffffffffffffffffffffffffffffffff160217905550611ed1806100f06000396000f3fe6080604052600436106100f1576000357c0100000000000000000000000000000000000000000000000000000000900463ffffffff168063032f9636146100f657806316efd941146101495780632b8b9c88146101605780634b82caec146101cc5780636840dc4a1461025d5780637d5aefc4146102cc5780638a67456a1461032e57806399d53dc61461035d5780639ee39b6b1461042b578063a872d2d31461044d578063b304517e146104a0578063cbb8547a146104fc578063d1197a8814610568578063d7ea1c19146105bb578063e20eaaf6146105d2578063e9e30927146105e9578063ef90cab214610655575b600080fd5b34801561010257600080fd5b5061012f6004803603602081101561011957600080fd5b81019080803590602001909291905050506106bb565b604051808215151515815260200191505060405180910390f35b34801561015557600080fd5b5061015e6107ce565b005b34801561016c57600080fd5b5061017561087f565b6040518080602001828103825283818151815260200191508051906020019060200280838360005b838110156101b857808201518184015260208101905061019d565b505050509050019250505060405180910390f35b3480156101d857600080fd5b5061021b600480360360208110156101ef57600080fd5b81019080803573ffffffffffffffffffffffffffffffffffffffff16906020019092919050505061090d565b604051808273ffffffffffffffffffffffffffffffffffffffff1673ffffffffffffffffffffffffffffffffffffffff16815260200191505060405180910390f35b34801561026957600080fd5b506102b66004803603604081101561028057600080fd5b81019080803573ffffffffffffffffffffffffffffffffffffffff16906020019092919080359060200190929190505050610979565b6040518082815260200191505060405180910390f35b610318600480360360408110156102e257600080fd5b81019080803573ffffffffffffffffffffffffffffffffffffffff16906020019092919080359060200190929190505050610cd9565b6040518082815260200191505060405180910390f35b34801561033a57600080fd5b50610343610efa565b604051808215151515815260200191505060405180910390f35b34801561036957600080fd5b506103966004803603602081101561038057600080fd5b8101908080359060200190929190505050610f0d565b604051808773ffffffffffffffffffffffffffffffffffffffff1673ffffffffffffffffffffffffffffffffffffffff1681526020018673ffffffffffffffffffffffffffffffffffffffff1673ffffffffffffffffffffffffffffffffffffffff16815260200185815260200184815260200183815260200182151515158152602001965050505050505060405180910390f35b610433610fec565b604051808215151515815260200191505060405180910390f35b34801561045957600080fd5b506104866004803603602081101561047057600080fd5b81019080803590602001909291905050506111ab565b604051808215151515815260200191505060405180910390f35b6104e2600480360360208110156104b657600080fd5b81019080803573ffffffffffffffffffffffffffffffffffffffff1690602001909291905050506112e4565b604051808215151515815260200191505060405180910390f35b34801561050857600080fd5b5061054b6004803603602081101561051f57600080fd5b81019080803573ffffffffffffffffffffffffffffffffffffffff169060200190929190505050611478565b604051808381526020018281526020019250505060405180910390f35b34801561057457600080fd5b506105a16004803603602081101561058b57600080fd5b810190808035906020019092919050505061150a565b604051808215151515815260200191505060405180910390f35b3480156105c757600080fd5b506105d06115ad565b005b3480156105de57600080fd5b506105e76116f1565b005b3480156105f557600080fd5b506105fe611835565b6040518080602001828103825283818151815260200191508051906020019060200280838360005b83811015610641578082015181840152602081019050610626565b505050509050019250505060405180910390f35b6106a16004803603604081101561066b57600080fd5b8101908080359060200190929190803573ffffffffffffffffffffffffffffffffffffffff1690602001909291905050506118c3565b604051808215151515815260200191505060405180910390f35b60003373ffffffffffffffffffffffffffffffffffffffff166005600084815260200190815260200160002060000160009054906101000a900473ffffffffffffffffffffffffffffffffffffffff1673ffffffffffffffffffffffffffffffffffffffff16141515610796576040517f08c379a00000000000000000000000000000000000000000000000000000000081526004018080602001828103825260168152602001807f596f7520617265206e6f7420746865207475746f722e0000000000000000000081525060200191505060405180910390fd5b60016005600084815260200190815260200160002060060160026101000a81548160ff02191690831515021790555060019050919050565b600060019054906101000a900473ffffffffffffffffffffffffffffffffffffffff1673ffffffffffffffffffffffffffffffffffffffff163373ffffffffffffffffffffffffffffffffffffffff16141561087d5760001515600860009054906101000a900460ff1615151415610860576001600860006101000a81548160ff02191690831515021790555061087c565b6000600860006101000a81548160ff0219169083151502179055505b5b565b6060600680548060200260200160405190810160405280929190818152602001828054801561090357602002820191906000526020600020905b8160009054906101000a900473ffffffffffffffffffffffffffffffffffffffff1673ffffffffffffffffffffffffffffffffffffffff16815260200190600101908083116108b9575b5050505050905090565b6000600460008373ffffffffffffffffffffffffffffffffffffffff1673ffffffffffffffffffffffffffffffffffffffff16815260200190815260200160002060000160009054906101000a900473ffffffffffffffffffffffffffffffffffffffff169050919050565b600060011515600360008573ffffffffffffffffffffffffffffffffffffffff1673ffffffffffffffffffffffffffffffffffffffff16815260200190815260200160002060020160009054906101000a900460ff1615151480610a30575060011515600460003373ffffffffffffffffffffffffffffffffffffffff1673ffffffffffffffffffffffffffffffffffffffff16815260200190815260200160002060020160009054906101000a900460ff161515145b1515610a3b57600080fd5b60003390506001600360008673ffffffffffffffffffffffffffffffffffffffff1673ffffffffffffffffffffffffffffffffffffffff1681526020019081526020016000206003016000828254019250508190555060008482600360008873ffffffffffffffffffffffffffffffffffffffff1673ffffffffffffffffffffffffffffffffffffffff16815260200190815260200160002060030154604051602001808473ffffffffffffffffffffffffffffffffffffffff1673ffffffffffffffffffffffffffffffffffffffff1681526020018373ffffffffffffffffffffffffffffffffffffffff1673ffffffffffffffffffffffffffffffffffffffff1681526020018281526020019350505050604051602081830303815290604052805190602001209050846005600083815260200190815260200160002060000160006101000a81548173ffffffffffffffffffffffffffffffffffffffff021916908373ffffffffffffffffffffffffffffffffffffffff160217905550336005600083815260200190815260200160002060010160006101000a81548173ffffffffffffffffffffffffffffffffffffffff021916908373ffffffffffffffffffffffffffffffffffffffff160217905550600360008673ffffffffffffffffffffffffffffffffffffffff1673ffffffffffffffffffffffffffffffffffffffff16815260200190815260200160002060040154600560008381526020019081526020016000206003018190555083600360008773ffffffffffffffffffffffffffffffffffffffff1673ffffffffffffffffffffffffffffffffffffffff168152602001908152602001600020600101541015610cc1578092505050610cd3565b610ccc848683611d92565b5080925050505b92915050565b600060011515600360008573ffffffffffffffffffffffffffffffffffffffff1673ffffffffffffffffffffffffffffffffffffffff16815260200190815260200160002060020160009054906101000a900460ff16151514151515610dcd576040517f08c379a00000000000000000000000000000000000000000000000000000000081526004018080602001828103825260248152602001807f54686572652069736e27742061207475746f722061742074686973206164647281526020017f6573732e0000000000000000000000000000000000000000000000000000000081525060400191505060405180910390fd5b6000600360008573ffffffffffffffffffffffffffffffffffffffff1673ffffffffffffffffffffffffffffffffffffffff1681526020019081526020016000209050838160000160006101000a81548173ffffffffffffffffffffffffffffffffffffffff021916908373ffffffffffffffffffffffffffffffffffffffff1602179055508281600401819055506000816001018190555060018160020160006101000a81548160ff021916908315150217905550600160068590806001815401808255809150509060018203906000526020600020016000909192909190916101000a81548173ffffffffffffffffffffffffffffffffffffffff021916908373ffffffffffffffffffffffffffffffffffffffff1602179055505050806001015491505092915050565b600860009054906101000a900460ff1681565b6000806000806000806005600088815260200190815260200160002060000160009054906101000a900473ffffffffffffffffffffffffffffffffffffffff166005600089815260200190815260200160002060010160009054906101000a900473ffffffffffffffffffffffffffffffffffffffff1688600560008b815260200190815260200160002060040154600560008c815260200190815260200160002060050154600560008d815260200190815260200160002060060160039054906101000a900460ff1695509550955095509550955091939550919395565b600060011515600460003373ffffffffffffffffffffffffffffffffffffffff1673ffffffffffffffffffffffffffffffffffffffff16815260200190815260200160002060020160009054906101000a900460ff1615151480156110de57503373ffffffffffffffffffffffffffffffffffffffff16600460003373ffffffffffffffffffffffffffffffffffffffff1673ffffffffffffffffffffffffffffffffffffffff16815260200190815260200160002060000160009054906101000a900473ffffffffffffffffffffffffffffffffffffffff1673ffffffffffffffffffffffffffffffffffffffff16145b15156110e957600080fd5b7f4537225e7ecda6ee97299ed950f50c0ff209c563c6d9dfb67af5b36c924237743334604051808373ffffffffffffffffffffffffffffffffffffffff1673ffffffffffffffffffffffffffffffffffffffff1681526020018281526020019250505060405180910390a134600460003373ffffffffffffffffffffffffffffffffffffffff1673ffffffffffffffffffffffffffffffffffffffff168152602001908152602001600020600101600082825401925050819055506001905090565b60003373ffffffffffffffffffffffffffffffffffffffff166005600084815260200190815260200160002060010160009054906101000a900473ffffffffffffffffffffffffffffffffffffffff1673ffffffffffffffffffffffffffffffffffffffff161415156112ac576040517f08c379a00000000000000000000000000000000000000000000000000000000081526004018080602001828103825260278152602001807f596f7520617265206e6f74207468652073747564656e74206f6620746869732081526020017f6c6573736f6e2e0000000000000000000000000000000000000000000000000081525060400191505060405180910390fd5b60016005600084815260200190815260200160002060060160016101000a81548160ff02191690831515021790555060019050919050565b600060011515600460008473ffffffffffffffffffffffffffffffffffffffff1673ffffffffffffffffffffffffffffffffffffffff16815260200190815260200160002060020160009054906101000a900460ff1615151415151561134957600080fd5b6000600460008473ffffffffffffffffffffffffffffffffffffffff1673ffffffffffffffffffffffffffffffffffffffff1681526020019081526020016000209050828160000160006101000a81548173ffffffffffffffffffffffffffffffffffffffff021916908373ffffffffffffffffffffffffffffffffffffffff16021790555034816001018190555060018160020160006101000a81548160ff021916908315150217905550600160078490806001815401808255809150509060018203906000526020600020016000909192909190916101000a81548173ffffffffffffffffffffffffffffffffffffffff021916908373ffffffffffffffffffffffffffffffffffffffff16021790555050508060020160009054906101000a900460ff16915050919050565b600080600360008473ffffffffffffffffffffffffffffffffffffffff1673ffffffffffffffffffffffffffffffffffffffff16815260200190815260200160002060010154600360008573ffffffffffffffffffffffffffffffffffffffff1673ffffffffffffffffffffffffffffffffffffffff1681526020019081526020016000206004015491509150915091565b6000600115156005600084815260200190815260200160002060060160019054906101000a900460ff16151514801561156a5750600115156005600084815260200190815260200160002060060160029054906101000a900460ff161515145b151561157557600080fd5b60016005600084815260200190815260200160002060060160036101000a81548160ff02191690831515021790555060019050919050565b6000600460003373ffffffffffffffffffffffffffffffffffffffff1673ffffffffffffffffffffffffffffffffffffffff1681526020019081526020016000206001015490506000600460003373ffffffffffffffffffffffffffffffffffffffff1673ffffffffffffffffffffffffffffffffffffffff168152602001908152602001600020600101819055503373ffffffffffffffffffffffffffffffffffffffff166108fc829081150290604051600060405180830381858888f19350505050158015611682573d6000803e3d6000fd5b507f8a43c200a722669df503c8997c4ae4af96d8849cba45c39bccf948d45223e7703382604051808373ffffffffffffffffffffffffffffffffffffffff1673ffffffffffffffffffffffffffffffffffffffff1681526020018281526020019250505060405180910390a150565b6000600360003373ffffffffffffffffffffffffffffffffffffffff1673ffffffffffffffffffffffffffffffffffffffff1681526020019081526020016000206001015490506000600360003373ffffffffffffffffffffffffffffffffffffffff1673ffffffffffffffffffffffffffffffffffffffff168152602001908152602001600020600101819055503373ffffffffffffffffffffffffffffffffffffffff166108fc829081150290604051600060405180830381858888f193505050501580156117c6573d6000803e3d6000fd5b507f8a43c200a722669df503c8997c4ae4af96d8849cba45c39bccf948d45223e7703382604051808373ffffffffffffffffffffffffffffffffffffffff1673ffffffffffffffffffffffffffffffffffffffff1681526020018281526020019250505060405180910390a150565b606060078054806020026020016040519081016040528092919081815260200182805480156118b957602002820191906000526020600020905b8160009054906101000a900473ffffffffffffffffffffffffffffffffffffffff1673ffffffffffffffffffffffffffffffffffffffff168152602001906001019080831161186f575b5050505050905090565b6000801515600860009054906101000a900460ff1615151415156118e657600080fd5b600115156005600085815260200190815260200160002060060160039054906101000a900460ff1615151415156119ab576040517f08c379a00000000000000000000000000000000000000000000000000000000081526004018080602001828103825260348152602001807f4974206c6f6f6b73206c696b6520746865206c6573736f6e20686173206e6f7481526020017f206265656e20636f6e6669726d6564207965742e00000000000000000000000081525060400191505060405180910390fd5b3373ffffffffffffffffffffffffffffffffffffffff166005600085815260200190815260200160002060010160009054906101000a900473ffffffffffffffffffffffffffffffffffffffff1673ffffffffffffffffffffffffffffffffffffffff161480611a7c57503373ffffffffffffffffffffffffffffffffffffffff166005600085815260200190815260200160002060000160009054906101000a900473ffffffffffffffffffffffffffffffffffffffff1673ffffffffffffffffffffffffffffffffffffffff16145b1515611b16576040517f08c379a00000000000000000000000000000000000000000000000000000000081526004018080602001828103825260308152602001807f4974206c6f6f6b73206c696b6520796f75277265206e6f74207468652073747581526020017f64656e74206f7220746561636865722e0000000000000000000000000000000081525060400191505060405180910390fd5b6005600084815260200190815260200160002060030154600460003373ffffffffffffffffffffffffffffffffffffffff1673ffffffffffffffffffffffffffffffffffffffff16815260200190815260200160002060010154111515611b7c57600080fd5b60006005600085815260200190815260200160002060050154905080600360006005600088815260200190815260200160002060000160009054906101000a900473ffffffffffffffffffffffffffffffffffffffff1673ffffffffffffffffffffffffffffffffffffffff1673ffffffffffffffffffffffffffffffffffffffff168152602001908152602001600020600101600082825401925050819055506005600085815260200190815260200160002060040154600460003373ffffffffffffffffffffffffffffffffffffffff1673ffffffffffffffffffffffffffffffffffffffff1681526020019081526020016000206001016000828254019250508190555060006005600086815260200190815260200160002060040181905550600060056000868152602001908152602001600020600501819055506005600085815260200190815260200160002060030154600460003373ffffffffffffffffffffffffffffffffffffffff1673ffffffffffffffffffffffffffffffffffffffff168152602001908152602001600020600101600082825403925050819055506005600085815260200190815260200160002060030154600360008573ffffffffffffffffffffffffffffffffffffffff1673ffffffffffffffffffffffffffffffffffffffff16815260200190815260200160002060010160008282540192505081905550600191505092915050565b600083600460003373ffffffffffffffffffffffffffffffffffffffff1673ffffffffffffffffffffffffffffffffffffffff16815260200190815260200160002060010160008282540392505081905550606460328502811515611df357fe5b04600360008573ffffffffffffffffffffffffffffffffffffffff1673ffffffffffffffffffffffffffffffffffffffff16815260200190815260200160002060010160008282540392505081905550836005600084815260200190815260200160002060040160008282540192505081905550606460328502811515611e7657fe5b04600560008481526020019081526020016000206005016000828254019250508190555060019050939250505056fea165627a7a72305820eb935df6a0e128cbbda54c0488a0cb5b8c8352750d9e89cbb43376a4e685bf9a0029",
  "source": "pragma solidity ^0.5.0;\n\n///the purpose of this contract is to create a market, accounts, and to manager student/tutor funds\ncontract Intercambio {\n\n\nbool marketexists;\naddress mktOwner;\naddress mktAddress;\nuint mktcreationcount;\nmapping (address => Seller) sellers; ///givess\nmapping (address => Buyer) buyers;\nmapping (bytes32 => lessonStruct) lessonmapping;\naddress[] sellersAddressesArray; ///stores the addresses of the teachers for reference in the mapping\naddress[] buyerAddressesArray;///stores the addresses of the students for reference in the mapping\n\nbool public contractPaused = false;\n\n\n\n// If the contract is paused, stop the modified function\n// Attach this modifier to all public functions\n\n\n\nstruct Seller {\n    address sellerAddress;\n    uint sellerFunds; \n    bool existance;\n    uint lessonCount;\n    uint hourlyRate;\n}\n\n///a student with a series of essential characteristics\nstruct Buyer {\n    address buyerAddress;\n    uint buyerFunds; \n    bool started;\n}\n\nstruct lessonStruct {\n    address tutor; ///address of the tutor\n    address student; ///address of the student\n    bytes32 lessonAddress; ///SHA256 address of the student and teachers lesson plus a rand var?\n    uint rate;\n    uint studentstake; ///amount of ether staked by student \n    uint tutorstake; ///amount of ether staked by teacher\n    bool scheduled; ///confirmed scheduled\n    bool studentconfirmed; ///student confirms lesson\n    bool tutorconfirmed; ///teacher  confirms lesson\n    bool lessonConfirmed; ///lesson is confirmed\n}\n\nevent mktcreated(address _owner, bool yup); ///lets front end know that the marketplace was created\nevent studentAccountFunded(address _address, uint _fundAmount); ///lets front end know that a student's account was funded\nevent fundsWithdrawn(address _address, uint Amount); ///lets front end know that a tutor's or student's funds were withdrawn\n\n///ensures that the market for language exchange actually exists\nmodifier creation () {\n    if (marketexists == true) {\n        _; } else {\n            revert();\n        }\n}\n\nmodifier onlyOwner() {\n    if(msg.sender == mktOwner) { _;} \n}\n\nmodifier checkIfPaused() {\n    require(contractPaused == false);\n    _;\n}\n\n///ensures that the market for students and teachers can only be created one time\nmodifier onlyOnce() {\n    if (mktcreationcount >= 1) {\n        revert();\n    } else { \n        _; \n    }\n}\n\nconstructor () public onlyOnce() {\n    marketexists = true; \n    mktAddress = msg.sender;\n    mktcreationcount = 1; \n    mktOwner = msg.sender;\n} \n\nfunction circuitBreaker() public onlyOwner() { // onlyOwner can call\n    if (contractPaused == false) { contractPaused = true; }\n    else { contractPaused = false; }\n}\n\n///creates a tutor with a series of attributes\nfunction createTutor(address _address, uint setRate) payable public returns (uint) {\n    ///checks to see if there is already a tutor at this address\n    require(sellers[_address].existance != true, \"There isn't a tutor at this address.\"); \n    Intercambio.Seller storage tutor = sellers[_address]; ///\n    tutor.sellerAddress = _address;\n    tutor.hourlyRate = setRate;\n    tutor.sellerFunds = 0;\n    tutor.existance = true;\n    sellersAddressesArray.push(_address) -1;\n    return (tutor.sellerFunds);\n}\n\n///creates a language learner with a series of attributes\nfunction createStudent(address _address) payable public returns (bool) {\n    require(buyers[_address].started != true); ///checks to see if there is already a student at this address\n    Intercambio.Buyer storage student = buyers[_address]; ///creates and instance of student and assigned _address to mapping\n    student.buyerAddress = _address; ///assigns address to struct\n    student.buyerFunds = msg.value; /// assigns initial balance of student funds to the value in the transaction\n    student.started = true; ///assigns bool to true to prove for later reference\n    buyerAddressesArray.push(_address) -1; ///adds the new address to the student addresses array\n    return student.started; ///returns the true variable\n}\n\n/// funds a student account given that the account exists\nfunction fundStudentAccount () public payable returns (bool) {\n    require(buyers[msg.sender].started == true && buyers[msg.sender].buyerAddress == msg.sender); ///requires the person calling the function to already have a student address and it exists\n    emit studentAccountFunded(msg.sender, msg.value);\n    buyers[msg.sender].buyerFunds += msg.value; ///assigns the value sent along with the transaction to be stored in this contract\n    return true;\n}\n\n///allows the students to withdraw their entire fund balance \nfunction studentWithdrawTotalFunds() public {\n      uint amount = buyers[msg.sender].buyerFunds;\n      buyers[msg.sender].buyerFunds = 0;\n      msg.sender.transfer(amount);\n      emit fundsWithdrawn(msg.sender, amount);\n   }\n\n///allows the tutor to withdraw their entire fund balance \nfunction tutorWithdrawTotalFunds() public {\n      uint amount = sellers[msg.sender].sellerFunds;\n      sellers[msg.sender].sellerFunds = 0;\n      msg.sender.transfer(amount);\n      emit fundsWithdrawn(msg.sender, amount);\n   }\n\n///this function schedules a lesson and then it also stakes funds\n///Thing to pay attention to the paremeter lessonTime is a uint - this is NOT FINAL BECAUSE i AM WORKING ON DEVELOPING TIME STAMPING\nfunction scheduleLesson(address tutor, uint studentStake) public returns(bytes32) { \nrequire(sellers[tutor].existance == true || buyers[msg.sender].started == true);\naddress studentAddress = msg.sender; /// states that the person sending this function is a student\nsellers[tutor].lessonCount += 1; ///adds a lesson count to the seller's struct for hash\nbytes32 lessonAddress = keccak256(abi.encode(tutor, studentAddress, sellers[tutor].lessonCount));  ///combines student and tutor's address together to create lesson\nlessonmapping[lessonAddress].tutor = tutor; ///sets the tutor of the lesson to the tutor's address\nlessonmapping[lessonAddress].student = msg.sender; ///sets the student of the lesson to the student's address \nlessonmapping[lessonAddress].rate = sellers[tutor].hourlyRate; ///changes the lesson struct to reference the hourly rate for later transfer -- NEED TO WORK ON THIS\nif(sellers[tutor].sellerFunds < studentStake) { return lessonAddress; } else {\nstakeFunds(studentStake, tutor, lessonAddress); ///calls stake funds to put funds in escro\nreturn lessonAddress; /// tells us that lines 30 to 35 worked \n}\n///then wait for the tutor to accept the lesson\n///once tutor accepts lesson, emit message for front end\n} \n\n///this function takes the students funds out of their account, as well as the tutors, as a promise that it'll happen\nfunction stakeFunds(uint stake, address tutorAddress, bytes32 lessonaddress) private returns(bool) { \nbuyers[msg.sender].buyerFunds -= stake; ///pulls stake amount from buyer and buyer stakes 100% of stake amount\nsellers[tutorAddress].sellerFunds -= (stake * 50) /100; ///pulls stake amount from seller and seller stakes 50% of stake amount\nlessonmapping[lessonaddress].studentstake += stake; ///adds the students stake to the contract struct\nlessonmapping[lessonaddress].tutorstake += (stake *50) / 100; ///adds the teacher's stake to the contract struct\nreturn true; ///returns bool to indicate success\n}\n\n///this function allows tutors to confirm the lesson \nfunction tutorConfirmLesson (bytes32 lessonAddress) public returns (bool) { \n    require(lessonmapping[lessonAddress].tutor == msg.sender, \"You are not the tutor.\"); ///requires the tutor confirming to be the tutor\n    lessonmapping[lessonAddress].tutorconfirmed = true; /// changes the state variable to true;\n    return true;\n\n}\n\n///this function allows students to confirm the lesson\nfunction studentConfirmLesson (bytes32 lessonAddress) public returns (bool) { \n    require(lessonmapping[lessonAddress].student == msg.sender, \"You are not the student of this lesson.\");     ///requires the student confirming to be the student\n    lessonmapping[lessonAddress].studentconfirmed = true;\n    return true;\n\n}\n\n///should either of these\nfunction lessonConfirmed (bytes32 lessonAddress) public returns (bool) {\n    //requires that both the student and the tutor have confirmed the lesson\n    require (lessonmapping[lessonAddress].studentconfirmed == true && lessonmapping[lessonAddress].tutorconfirmed == true); ///requires both student and tutors confirm, then either can call\n    lessonmapping[lessonAddress].lessonConfirmed = true; /// changes the state variable to true\n    return true; /// returns true to confirm the function worked\n\n}\n\nfunction transferFunds(bytes32 lesson, address _receiver) public payable checkIfPaused() returns (bool) {\n    require(lessonmapping[lesson].lessonConfirmed == true, \"It looks like the lesson has not been confirmed yet.\");\n    require((lessonmapping[lesson].student == msg.sender || lessonmapping[lesson].tutor == msg.sender ), \"It looks like you're not the student or teacher.\"); ///requires the person calling is the student or tutor\n    require(buyers[msg.sender].buyerFunds > lessonmapping[lesson].rate); ///require that the person transfering the funds is a student and they have sufficient funds\n    uint tutorAmt = lessonmapping[lesson].tutorstake;\n    sellers[lessonmapping[lesson].tutor].sellerFunds += tutorAmt; ///refunds the tutor's bank the stake amount \n    buyers[msg.sender].buyerFunds += lessonmapping[lesson].studentstake; ///refunds the student's bank the stake amouint\n    lessonmapping[lesson].studentstake = 0; ///sets the stake amount to 0\n    lessonmapping[lesson].tutorstake = 0; ///sets the stake amount to 0\n    buyers[msg.sender].buyerFunds -= lessonmapping[lesson].rate; /// subtract the funds from the students account \n    sellers[_receiver].sellerFunds += lessonmapping[lesson].rate; /// add the funds from the student's account to the teacher's account\n    return true; /// returns true to represent that the transfer has occured\n}\n   \nfunction getLessonInfo (bytes32 lessonAddress) public view returns (address, address, bytes32, uint, uint, bool) {\n    return (lessonmapping[lessonAddress].tutor, lessonmapping[lessonAddress].student, lessonAddress, lessonmapping[lessonAddress].studentstake, lessonmapping[lessonAddress].tutorstake, lessonmapping[lessonAddress].lessonConfirmed); \n}\n\n///allows us to pull the teacher's information from the blockchain\nfunction getTutorInfo (address _address) public view returns (uint, uint) {\n    return (sellers[_address].sellerFunds, sellers[_address].hourlyRate);\n}\n\n///allows us to pull the students info from the blockchain\nfunction getStudentInfo (address _address) public view returns (address) {\n    return (buyers[_address].buyerAddress);\n}\n\nfunction getAllTutors () public view returns (address[] memory ) {\n    return sellersAddressesArray;\n}\n\nfunction getAllStudents () public view returns (address[] memory ) {\n    return buyerAddressesArray;\n}\n   \n   \n}\n",
  "sourcePath": "/home/huckleberry/Documents/Truffle/Intercambio/contracts/Intercambio.sol",
  "compiler": {
    "name": "solc",
    "version": "0.5.0+commit.1d4f565a.Emscripten.clang"
  },
  "schemaVersion": "3.0.0",
  "updatedAt": "2020-01-10T02:45:11.449Z",
  "devdoc": {
    "methods": {}
  },
  "userdoc": {
    "methods": {
      "createStudent(address)": {
        "notice": "creates a language learner with a series of attributes"
      },
      "createTutor(address,uint256)": {
        "notice": "creates a tutor with a series of attributes"
      },
      "fundStudentAccount()": {
        "notice": "funds a student account given that the account exists"
      },
      "getStudentInfo(address)": {
        "notice": "allows us to pull the students info from the blockchain"
      },
      "getTutorInfo(address)": {
        "notice": "allows us to pull the teacher's information from the blockchain"
      },
      "lessonConfirmed(bytes32)": {
        "notice": "should either of these"
      },
      "scheduleLesson(address,uint256)": {
        "notice": "this function schedules a lesson and then it also stakes funds Thing to pay attention to the paremeter lessonTime is a uint - this is NOT FINAL BECAUSE i AM WORKING ON DEVELOPING TIME STAMPING"
      },
      "studentConfirmLesson(bytes32)": {
        "notice": "this function allows students to confirm the lesson"
      },
      "studentWithdrawTotalFunds()": {
        "notice": "allows the students to withdraw their entire fund balance "
      },
      "tutorConfirmLesson(bytes32)": {
        "notice": "this function allows tutors to confirm the lesson "
      },
      "tutorWithdrawTotalFunds()": {
        "notice": "allows the tutor to withdraw their entire fund balance "
      }
    },
    "notice": "the purpose of this contract is to create a market, accounts, and to manager student/tutor funds"
  }
}