{
  "contractName": "Intercambio",
  "abi": [
    {
      "constant": true,
      "inputs": [],
      "name": "contractPaused",
      "outputs": [
        {
          "name": "",
          "type": "bool"
        }
      ],
      "payable": false,
      "stateMutability": "view",
      "type": "function"
    },
    {
      "inputs": [],
      "payable": false,
      "stateMutability": "nonpayable",
      "type": "constructor"
    },
    {
      "payable": false,
      "stateMutability": "nonpayable",
      "type": "fallback"
    },
    {
      "anonymous": false,
      "inputs": [
        {
          "indexed": false,
          "name": "tutor",
          "type": "address"
        },
        {
          "indexed": false,
          "name": "hourlyRate",
          "type": "uint256"
        },
        {
          "indexed": false,
          "name": "depositAmount",
          "type": "uint256"
        }
      ],
      "name": "tutorAccountCreated",
      "type": "event"
    },
    {
      "anonymous": false,
      "inputs": [
        {
          "indexed": false,
          "name": "student",
          "type": "address"
        },
        {
          "indexed": false,
          "name": "depositAmount",
          "type": "uint256"
        }
      ],
      "name": "studentAccountCreated",
      "type": "event"
    },
    {
      "anonymous": false,
      "inputs": [
        {
          "indexed": false,
          "name": "studentAddress",
          "type": "address"
        },
        {
          "indexed": false,
          "name": "fundAmount",
          "type": "uint256"
        }
      ],
      "name": "studentAccountFunded",
      "type": "event"
    },
    {
      "anonymous": false,
      "inputs": [
        {
          "indexed": false,
          "name": "studentAddress",
          "type": "address"
        },
        {
          "indexed": false,
          "name": "amount",
          "type": "uint256"
        }
      ],
      "name": "studentFundsWithdrawn",
      "type": "event"
    },
    {
      "anonymous": false,
      "inputs": [
        {
          "indexed": false,
          "name": "tutorAddress",
          "type": "address"
        },
        {
          "indexed": false,
          "name": "amount",
          "type": "uint256"
        }
      ],
      "name": "tutorFundsWithdrawn",
      "type": "event"
    },
    {
      "anonymous": false,
      "inputs": [
        {
          "indexed": false,
          "name": "tutorAddress",
          "type": "address"
        },
        {
          "indexed": false,
          "name": "studentAddress",
          "type": "address"
        },
        {
          "indexed": false,
          "name": "lessonAddress",
          "type": "bytes32"
        }
      ],
      "name": "lessonScheduled",
      "type": "event"
    },
    {
      "anonymous": false,
      "inputs": [
        {
          "indexed": false,
          "name": "student",
          "type": "address"
        }
      ],
      "name": "studentConfirmedLesson",
      "type": "event"
    },
    {
      "anonymous": false,
      "inputs": [
        {
          "indexed": false,
          "name": "tutor",
          "type": "address"
        }
      ],
      "name": "tutorConfirmedLesson",
      "type": "event"
    },
    {
      "anonymous": false,
      "inputs": [
        {
          "indexed": false,
          "name": "tutor",
          "type": "address"
        },
        {
          "indexed": false,
          "name": "student",
          "type": "address"
        },
        {
          "indexed": false,
          "name": "lessonAddress",
          "type": "bytes32"
        }
      ],
      "name": "lessonLogConfirmed",
      "type": "event"
    },
    {
      "anonymous": false,
      "inputs": [
        {
          "indexed": false,
          "name": "tutor",
          "type": "address"
        },
        {
          "indexed": false,
          "name": "student",
          "type": "address"
        },
        {
          "indexed": false,
          "name": "transferAmt",
          "type": "uint256"
        },
        {
          "indexed": false,
          "name": "lessonAddress",
          "type": "bytes32"
        }
      ],
      "name": "transferCompleted",
      "type": "event"
    },
    {
      "constant": false,
      "inputs": [],
      "name": "circuitPauseAllFundMovement",
      "outputs": [],
      "payable": false,
      "stateMutability": "nonpayable",
      "type": "function"
    },
    {
      "constant": false,
      "inputs": [
        {
          "name": "setRate",
          "type": "uint256"
        }
      ],
      "name": "createTutor",
      "outputs": [],
      "payable": true,
      "stateMutability": "payable",
      "type": "function"
    },
    {
      "constant": false,
      "inputs": [],
      "name": "createStudent",
      "outputs": [
        {
          "name": "",
          "type": "uint256"
        }
      ],
      "payable": true,
      "stateMutability": "payable",
      "type": "function"
    },
    {
      "constant": false,
      "inputs": [],
      "name": "fundStudentAccount",
      "outputs": [
        {
          "name": "",
          "type": "bool"
        }
      ],
      "payable": true,
      "stateMutability": "payable",
      "type": "function"
    },
    {
      "constant": false,
      "inputs": [
        {
          "name": "Amount",
          "type": "uint256"
        }
      ],
      "name": "studentWithdrawTotalFunds",
      "outputs": [],
      "payable": true,
      "stateMutability": "payable",
      "type": "function"
    },
    {
      "constant": false,
      "inputs": [
        {
          "name": "Amount",
          "type": "uint256"
        }
      ],
      "name": "tutorWithdrawFunds",
      "outputs": [],
      "payable": true,
      "stateMutability": "payable",
      "type": "function"
    },
    {
      "constant": false,
      "inputs": [
        {
          "name": "tutor",
          "type": "address"
        }
      ],
      "name": "scheduleLesson",
      "outputs": [
        {
          "name": "",
          "type": "bytes32"
        },
        {
          "name": "",
          "type": "uint256"
        }
      ],
      "payable": true,
      "stateMutability": "payable",
      "type": "function"
    },
    {
      "constant": false,
      "inputs": [
        {
          "name": "lessonAddress",
          "type": "bytes32"
        }
      ],
      "name": "tutorConfirmLesson",
      "outputs": [
        {
          "name": "",
          "type": "bool"
        }
      ],
      "payable": false,
      "stateMutability": "nonpayable",
      "type": "function"
    },
    {
      "constant": false,
      "inputs": [
        {
          "name": "lessonAddress",
          "type": "bytes32"
        }
      ],
      "name": "studentConfirmLesson",
      "outputs": [
        {
          "name": "",
          "type": "bool"
        }
      ],
      "payable": false,
      "stateMutability": "nonpayable",
      "type": "function"
    },
    {
      "constant": true,
      "inputs": [
        {
          "name": "lessonAddress",
          "type": "bytes32"
        }
      ],
      "name": "getLessonInfo",
      "outputs": [
        {
          "name": "",
          "type": "address"
        },
        {
          "name": "",
          "type": "address"
        },
        {
          "name": "",
          "type": "bytes32"
        },
        {
          "name": "",
          "type": "uint256"
        },
        {
          "name": "",
          "type": "uint256"
        },
        {
          "name": "",
          "type": "uint8"
        }
      ],
      "payable": false,
      "stateMutability": "view",
      "type": "function"
    },
    {
      "constant": true,
      "inputs": [
        {
          "name": "_address",
          "type": "address"
        }
      ],
      "name": "getTutorInfo",
      "outputs": [
        {
          "name": "",
          "type": "uint256"
        },
        {
          "name": "",
          "type": "uint256"
        }
      ],
      "payable": false,
      "stateMutability": "view",
      "type": "function"
    },
    {
      "constant": true,
      "inputs": [
        {
          "name": "_address",
          "type": "address"
        }
      ],
      "name": "getStudentInfo",
      "outputs": [
        {
          "name": "",
          "type": "address"
        },
        {
          "name": "",
          "type": "uint256"
        }
      ],
      "payable": false,
      "stateMutability": "view",
      "type": "function"
    },
    {
      "constant": true,
      "inputs": [],
      "name": "getAllTutors",
      "outputs": [
        {
          "name": "",
          "type": "address[]"
        }
      ],
      "payable": false,
      "stateMutability": "view",
      "type": "function"
    },
    {
      "constant": true,
      "inputs": [],
      "name": "getAllStudents",
      "outputs": [
        {
          "name": "",
          "type": "address[]"
        }
      ],
      "payable": false,
      "stateMutability": "view",
      "type": "function"
    },
    {
      "constant": true,
      "inputs": [],
      "name": "getAllLessons",
      "outputs": [
        {
          "name": "",
          "type": "bytes32[]"
        }
      ],
      "payable": false,
      "stateMutability": "view",
      "type": "function"
    },
    {
      "constant": true,
      "inputs": [],
      "name": "getMktOwner",
      "outputs": [
        {
          "name": "",
          "type": "bool"
        },
        {
          "name": "",
          "type": "address"
        },
        {
          "name": "",
          "type": "address"
        },
        {
          "name": "",
          "type": "uint256"
        }
      ],
      "payable": false,
      "stateMutability": "view",
      "type": "function"
    },
    {
      "constant": true,
      "inputs": [],
      "name": "getCircuitBreakerInfo",
      "outputs": [
        {
          "name": "",
          "type": "bool"
        }
      ],
      "payable": false,
      "stateMutability": "view",
      "type": "function"
    }
  ],
  "bytecode": "0x60806040526000600360006101000a81548160ff02191690831515021790555034801561002b57600080fd5b50600160025410151561003d57600080fd5b60016000806101000a81548160ff02191690831515021790555033600160006101000a81548173ffffffffffffffffffffffffffffffffffffffff021916908373ffffffffffffffffffffffffffffffffffffffff160217905550600160028190555033600060016101000a81548173ffffffffffffffffffffffffffffffffffffffff021916908373ffffffffffffffffffffffffffffffffffffffff160217905550612acb806100f06000396000f3fe6080604052600436106100fc576000357c0100000000000000000000000000000000000000000000000000000000900463ffffffff168063032f96361461010e5780631b9e5af5146101615780632b8b9c881461018f5780632c64f44e146101fb5780633be76a591461022a57806341c0f000146102585780634b82caec146102765780635b8151981461030e5780638a67456a1461033c57806399d53dc61461036b5780639ee39b6b14610443578063a296ea5814610465578063a872d2d3146104d1578063ace9122914610524578063c561196014610583578063cacb53121461059a578063cbb8547a14610636578063e9e30927146106a2575b34801561010857600080fd5b50600080fd5b34801561011a57600080fd5b506101476004803603602081101561013157600080fd5b810190808035906020019092919050505061070e565b604051808215151515815260200191505060405180910390f35b61018d6004803603602081101561017757600080fd5b81019080803590602001909291905050506108ec565b005b34801561019b57600080fd5b506101a4610b97565b6040518080602001828103825283818151815260200191508051906020019060200280838360005b838110156101e75780820151818401526020810190506101cc565b505050509050019250505060405180910390f35b34801561020757600080fd5b50610210610c25565b604051808215151515815260200191505060405180910390f35b6102566004803603602081101561024057600080fd5b8101908080359060200190929190505050610c3c565b005b610260610f81565b6040518082815260200191505060405180910390f35b34801561028257600080fd5b506102c56004803603602081101561029957600080fd5b81019080803573ffffffffffffffffffffffffffffffffffffffff1690602001909291905050506111fd565b604051808373ffffffffffffffffffffffffffffffffffffffff1673ffffffffffffffffffffffffffffffffffffffff1681526020018281526020019250505060405180910390f35b61033a6004803603602081101561032457600080fd5b81019080803590602001909291905050506112af565b005b34801561034857600080fd5b5061035161155a565b604051808215151515815260200191505060405180910390f35b34801561037757600080fd5b506103a46004803603602081101561038e57600080fd5b810190808035906020019092919050505061156d565b604051808773ffffffffffffffffffffffffffffffffffffffff1673ffffffffffffffffffffffffffffffffffffffff1681526020018673ffffffffffffffffffffffffffffffffffffffff1673ffffffffffffffffffffffffffffffffffffffff16815260200185815260200184815260200183815260200182600181111561042a57fe5b60ff168152602001965050505050505060405180910390f35b61044b61164c565b604051808215151515815260200191505060405180910390f35b34801561047157600080fd5b5061047a6117c1565b6040518080602001828103825283818151815260200191508051906020019060200280838360005b838110156104bd5780820151818401526020810190506104a2565b505050509050019250505060405180910390f35b3480156104dd57600080fd5b5061050a600480360360208110156104f457600080fd5b8101908080359060200190929190505050611819565b604051808215151515815260200191505060405180910390f35b6105666004803603602081101561053a57600080fd5b81019080803573ffffffffffffffffffffffffffffffffffffffff169060200190929190505050611a1d565b604051808381526020018281526020019250505060405180910390f35b34801561058f57600080fd5b50610598611f24565b005b3480156105a657600080fd5b506105af611fda565b60405180851515151581526020018473ffffffffffffffffffffffffffffffffffffffff1673ffffffffffffffffffffffffffffffffffffffff1681526020018373ffffffffffffffffffffffffffffffffffffffff1673ffffffffffffffffffffffffffffffffffffffff16815260200182815260200194505050505060405180910390f35b34801561064257600080fd5b506106856004803603602081101561065957600080fd5b81019080803573ffffffffffffffffffffffffffffffffffffffff169060200190929190505050612046565b604051808381526020018281526020019250505060405180910390f35b3480156106ae57600080fd5b506106b76120d8565b6040518080602001828103825283818151815260200191508051906020019060200280838360005b838110156106fa5780820151818401526020810190506106df565b505050509050019250505060405180910390f35b600081603c6006600083815260200190815260200160002060070154014211156108e6573373ffffffffffffffffffffffffffffffffffffffff166006600085815260200190815260200160002060000160009054906101000a900473ffffffffffffffffffffffffffffffffffffffff1673ffffffffffffffffffffffffffffffffffffffff1614151561080b576040517f08c379a00000000000000000000000000000000000000000000000000000000081526004018080602001828103825260168152602001807f596f7520617265206e6f7420746865207475746f722e0000000000000000000081525060200191505060405180910390fd5b60016006600085815260200190815260200160002060060160026101000a81548160ff021916908315150217905550600115156006600085815260200190815260200160002060060160019054906101000a900460ff16151514156108db5761087383612166565b7f35caa92c3a02487629137f09fa3241516c1ad6d15bd1e12880e771093953402733604051808273ffffffffffffffffffffffffffffffffffffffff1673ffffffffffffffffffffffffffffffffffffffff16815260200191505060405180910390a16108e4565b600191506108e5565b5b5b50919050565b806715c2c0397f8e3940811080156109045750600081115b151561090f57600080fd5b600460003373ffffffffffffffffffffffffffffffffffffffff1673ffffffffffffffffffffffffffffffffffffffff16815260200190815260200160002060000160009054906101000a900473ffffffffffffffffffffffffffffffffffffffff1673ffffffffffffffffffffffffffffffffffffffff163373ffffffffffffffffffffffffffffffffffffffff161480156109ee575081600460003373ffffffffffffffffffffffffffffffffffffffff1673ffffffffffffffffffffffffffffffffffffffff1681526020019081526020016000206001015410155b15156109f957600080fd5b81600460003373ffffffffffffffffffffffffffffffffffffffff1673ffffffffffffffffffffffffffffffffffffffff1681526020019081526020016000206001016000828254039250508190555060003373ffffffffffffffffffffffffffffffffffffffff168360405180600001905060006040518083038185875af1925050503d8060008114610aa9576040519150601f19603f3d011682016040523d82523d6000602084013e610aae565b606091505b50509050801515610b27576040517f08c379a00000000000000000000000000000000000000000000000000000000081526004018080602001828103825260108152602001807f5472616e73666572206661696c65642e0000000000000000000000000000000081525060200191505060405180910390fd5b7fb3f7f89d4b591c88aaa852f554a59d168a9462d8fad0f3a287d6d4bc6ea12e573384604051808373ffffffffffffffffffffffffffffffffffffffff1673ffffffffffffffffffffffffffffffffffffffff1681526020018281526020019250505060405180910390a1505050565b60606007805480602002602001604051908101604052809291908181526020018280548015610c1b57602002820191906000526020600020905b8160009054906101000a900473ffffffffffffffffffffffffffffffffffffffff1673ffffffffffffffffffffffffffffffffffffffff1681526020019060010190808311610bd1575b5050505050905090565b6000600360009054906101000a900460ff16905090565b806715c2c0397f8e394081108015610c545750600081115b1515610c5f57600080fd5b8134111515610cfc576040517f08c379a00000000000000000000000000000000000000000000000000000000081526004018080602001828103825260358152602001807f596f75206861766520746f206465706f736974206174206c6561737420616e2081526020017f686f75727320776f727468206f66207374616b652e000000000000000000000081525060400191505060405180910390fd5b60011515600460003373ffffffffffffffffffffffffffffffffffffffff1673ffffffffffffffffffffffffffffffffffffffff16815260200190815260200160002060020160009054906101000a900460ff16151514151515610dee576040517f08c379a00000000000000000000000000000000000000000000000000000000081526004018080602001828103825260298152602001807f546865726520697320616c72656164792061207475746f72206174207468697381526020017f20616464726573732e000000000000000000000000000000000000000000000081525060400191505060405180910390fd5b6000600460003373ffffffffffffffffffffffffffffffffffffffff1673ffffffffffffffffffffffffffffffffffffffff1681526020019081526020016000209050338160000160006101000a81548173ffffffffffffffffffffffffffffffffffffffff021916908373ffffffffffffffffffffffffffffffffffffffff16021790555082816004018190555034816001018190555060018160020160006101000a81548160ff02191690831515021790555060073390806001815401808255809150509060018203906000526020600020016000909192909190916101000a81548173ffffffffffffffffffffffffffffffffffffffff021916908373ffffffffffffffffffffffffffffffffffffffff160217905550507f3d0eb89016b9d3487bc35130b74dbe63070c5eaf56d3270d245bd43d02e1c31b338434604051808473ffffffffffffffffffffffffffffffffffffffff1673ffffffffffffffffffffffffffffffffffffffff168152602001838152602001828152602001935050505060405180910390a1505050565b600060011515600560003373ffffffffffffffffffffffffffffffffffffffff1673ffffffffffffffffffffffffffffffffffffffff16815260200190815260200160002060020160009054906101000a900460ff16151514151515611075576040517f08c379a000000000000000000000000000000000000000000000000000000000815260040180806020018281038252602b8152602001807f546865726520697320616c726561647920612073747564656e7420617420746881526020017f697320616464726573732e00000000000000000000000000000000000000000081525060400191505060405180910390fd5b6000600560003373ffffffffffffffffffffffffffffffffffffffff1673ffffffffffffffffffffffffffffffffffffffff1681526020019081526020016000209050338160000160006101000a81548173ffffffffffffffffffffffffffffffffffffffff021916908373ffffffffffffffffffffffffffffffffffffffff16021790555034816001018190555060018160020160006101000a81548160ff02191690831515021790555060083390806001815401808255809150509060018203906000526020600020016000909192909190916101000a81548173ffffffffffffffffffffffffffffffffffffffff021916908373ffffffffffffffffffffffffffffffffffffffff160217905550507f7644697e9a091d6aaaf0b58a0337fc4fdb43783a4de833c23fee4c5aaba9e01c3334604051808373ffffffffffffffffffffffffffffffffffffffff1673ffffffffffffffffffffffffffffffffffffffff1681526020018281526020019250505060405180910390a1806001015491505090565b600080600560008473ffffffffffffffffffffffffffffffffffffffff1673ffffffffffffffffffffffffffffffffffffffff16815260200190815260200160002060000160009054906101000a900473ffffffffffffffffffffffffffffffffffffffff16600560008573ffffffffffffffffffffffffffffffffffffffff1673ffffffffffffffffffffffffffffffffffffffff1681526020019081526020016000206001015491509150915091565b806715c2c0397f8e3940811080156112c75750600081115b15156112d257600080fd5b600560003373ffffffffffffffffffffffffffffffffffffffff1673ffffffffffffffffffffffffffffffffffffffff16815260200190815260200160002060000160009054906101000a900473ffffffffffffffffffffffffffffffffffffffff1673ffffffffffffffffffffffffffffffffffffffff163373ffffffffffffffffffffffffffffffffffffffff161480156113b1575081600560003373ffffffffffffffffffffffffffffffffffffffff1673ffffffffffffffffffffffffffffffffffffffff1681526020019081526020016000206001015410155b15156113bc57600080fd5b81600560003373ffffffffffffffffffffffffffffffffffffffff1673ffffffffffffffffffffffffffffffffffffffff1681526020019081526020016000206001016000828254039250508190555060003373ffffffffffffffffffffffffffffffffffffffff168360405180600001905060006040518083038185875af1925050503d806000811461146c576040519150601f19603f3d011682016040523d82523d6000602084013e611471565b606091505b505090508015156114ea576040517f08c379a00000000000000000000000000000000000000000000000000000000081526004018080602001828103825260108152602001807f5472616e73666572206661696c65642e0000000000000000000000000000000081525060200191505060405180910390fd5b7f1e79efbaf08157cba1315cb694eaaa56f4770cdf4f375fa1f681cf0ad9b626f23384604051808373ffffffffffffffffffffffffffffffffffffffff1673ffffffffffffffffffffffffffffffffffffffff1681526020018281526020019250505060405180910390a1505050565b600360009054906101000a900460ff1681565b6000806000806000806006600088815260200190815260200160002060000160009054906101000a900473ffffffffffffffffffffffffffffffffffffffff166006600089815260200190815260200160002060010160009054906101000a900473ffffffffffffffffffffffffffffffffffffffff1688600660008b815260200190815260200160002060040154600660008c815260200190815260200160002060050154600660008d815260200190815260200160002060060160039054906101000a900460ff1695509550955095509550955091939550919395565b6000801515600360009054906101000a900460ff16151514151561166f57600080fd5b60011515600560003373ffffffffffffffffffffffffffffffffffffffff1673ffffffffffffffffffffffffffffffffffffffff16815260200190815260200160002060020160009054906101000a900460ff16151514801561175f57503373ffffffffffffffffffffffffffffffffffffffff16600560003373ffffffffffffffffffffffffffffffffffffffff1673ffffffffffffffffffffffffffffffffffffffff16815260200190815260200160002060000160009054906101000a900473ffffffffffffffffffffffffffffffffffffffff1673ffffffffffffffffffffffffffffffffffffffff16145b151561176a57600080fd5b34600560003373ffffffffffffffffffffffffffffffffffffffff1673ffffffffffffffffffffffffffffffffffffffff168152602001908152602001600020600101600082825401925050819055506001905090565b6060600980548060200260200160405190810160405280929190818152602001828054801561180f57602002820191906000526020600020905b8154815260200190600101908083116117fb575b5050505050905090565b600081603c600660008381526020019081526020016000206007015401421115611a17573373ffffffffffffffffffffffffffffffffffffffff166006600085815260200190815260200160002060010160009054906101000a900473ffffffffffffffffffffffffffffffffffffffff1673ffffffffffffffffffffffffffffffffffffffff1614151561193c576040517f08c379a00000000000000000000000000000000000000000000000000000000081526004018080602001828103825260278152602001807f596f7520617265206e6f74207468652073747564656e74206f6620746869732081526020017f6c6573736f6e2e0000000000000000000000000000000000000000000000000081525060400191505060405180910390fd5b60016006600085815260200190815260200160002060060160016101000a81548160ff0219169083151502179055507fb1ab78b12b5e9648a3461d608cf2bffd3596cd8e02d4d45392fe3258f3d2806a33604051808273ffffffffffffffffffffffffffffffffffffffff1673ffffffffffffffffffffffffffffffffffffffff16815260200191505060405180910390a1600115156006600085815260200190815260200160002060060160029054906101000a900460ff1615151415611a0c57611a0783612166565b611a15565b60019150611a16565b5b5b50919050565b60008060011515600560003373ffffffffffffffffffffffffffffffffffffffff1673ffffffffffffffffffffffffffffffffffffffff16815260200190815260200160002060020160009054906101000a900460ff161515148015611aaf57503373ffffffffffffffffffffffffffffffffffffffff168373ffffffffffffffffffffffffffffffffffffffff1614155b8015611b3e5750600460008473ffffffffffffffffffffffffffffffffffffffff1673ffffffffffffffffffffffffffffffffffffffff16815260200190815260200160002060040154600460008573ffffffffffffffffffffffffffffffffffffffff1673ffffffffffffffffffffffffffffffffffffffff16815260200190815260200160002060010154115b1515611b95576040517f08c379a000000000000000000000000000000000000000000000000000000000815260040180806020018281038252608a815260200180612a16608a913960a00191505060405180910390fd5b6001600460008573ffffffffffffffffffffffffffffffffffffffff1673ffffffffffffffffffffffffffffffffffffffff1681526020019081526020016000206003016000828254019250508190555060008333600460008773ffffffffffffffffffffffffffffffffffffffff1673ffffffffffffffffffffffffffffffffffffffff16815260200190815260200160002060030154604051602001808473ffffffffffffffffffffffffffffffffffffffff1673ffffffffffffffffffffffffffffffffffffffff1681526020018373ffffffffffffffffffffffffffffffffffffffff1673ffffffffffffffffffffffffffffffffffffffff1681526020018281526020019350505050604051602081830303815290604052805190602001209050836006600083815260200190815260200160002060000160006101000a81548173ffffffffffffffffffffffffffffffffffffffff021916908373ffffffffffffffffffffffffffffffffffffffff160217905550336006600083815260200190815260200160002060010160006101000a81548173ffffffffffffffffffffffffffffffffffffffff021916908373ffffffffffffffffffffffffffffffffffffffff160217905550600460008573ffffffffffffffffffffffffffffffffffffffff1673ffffffffffffffffffffffffffffffffffffffff168152602001908152602001600020600401546006600083815260200190815260200160002060030181905550600042905060006006600084815260200190815260200160002060060160036101000a81548160ff02191690836001811115611dfa57fe5b0217905550806006600084815260200190815260200160002060070181905550600460008673ffffffffffffffffffffffffffffffffffffffff1673ffffffffffffffffffffffffffffffffffffffff16815260200190815260200160002060040154600460008773ffffffffffffffffffffffffffffffffffffffff1673ffffffffffffffffffffffffffffffffffffffff168152602001908152602001600020600101541015611edf5760098290806001815401808255809150509060018203906000526020600020016000909192909190915055508181935093505050611f1f565b611ee98583612501565b50600982908060018154018082558091505090600182039060005260206000200160009091929091909150555081819350935050505b915091565b600060019054906101000a900473ffffffffffffffffffffffffffffffffffffffff1673ffffffffffffffffffffffffffffffffffffffff163373ffffffffffffffffffffffffffffffffffffffff16141515611f8057600080fd5b60001515600360009054906101000a900460ff1615151415611fbc576001600360006101000a81548160ff021916908315150217905550611fd8565b6000600360006101000a81548160ff0219169083151502179055505b565b6000806000806000809054906101000a900460ff16600060019054906101000a900473ffffffffffffffffffffffffffffffffffffffff16600160009054906101000a900473ffffffffffffffffffffffffffffffffffffffff16600254935093509350935090919293565b600080600460008473ffffffffffffffffffffffffffffffffffffffff1673ffffffffffffffffffffffffffffffffffffffff16815260200190815260200160002060010154600460008573ffffffffffffffffffffffffffffffffffffffff1673ffffffffffffffffffffffffffffffffffffffff1681526020019081526020016000206004015491509150915091565b6060600880548060200260200160405190810160405280929190818152602001828054801561215c57602002820191906000526020600020905b8160009054906101000a900473ffffffffffffffffffffffffffffffffffffffff1673ffffffffffffffffffffffffffffffffffffffff1681526020019060010190808311612112575b5050505050905090565b80603c6006600083815260200190815260200160002060070154014211156124fd5760018081111561219457fe5b6006600084815260200190815260200160002060060160039054906101000a900460ff1660018111156121c357fe5b141515156121d057600080fd5b622932e06006600084815260200190815260200160002060070154014211156123455760006006600084815260200190815260200160002060060160036101000a81548160ff0219169083600181111561222657fe5b02179055507f9d3d678ffc6a05c50b6677df75a9266fb0d53a4675894242373804c6f983bd496006600084815260200190815260200160002060000160009054906101000a900473ffffffffffffffffffffffffffffffffffffffff166006600085815260200190815260200160002060010160009054906101000a900473ffffffffffffffffffffffffffffffffffffffff1684604051808473ffffffffffffffffffffffffffffffffffffffff1673ffffffffffffffffffffffffffffffffffffffff1681526020018373ffffffffffffffffffffffffffffffffffffffff1673ffffffffffffffffffffffffffffffffffffffff168152602001828152602001935050505060405180910390a161233f8261265a565b506124fc565b600115156006600084815260200190815260200160002060060160019054906101000a900460ff1615151480156123a35750600115156006600084815260200190815260200160002060060160029054906101000a900460ff161515145b15156123ae57600080fd5b60006006600084815260200190815260200160002060060160036101000a81548160ff021916908360018111156123e157fe5b02179055507f9d3d678ffc6a05c50b6677df75a9266fb0d53a4675894242373804c6f983bd496006600084815260200190815260200160002060000160009054906101000a900473ffffffffffffffffffffffffffffffffffffffff166006600085815260200190815260200160002060010160009054906101000a900473ffffffffffffffffffffffffffffffffffffffff1684604051808473ffffffffffffffffffffffffffffffffffffffff1673ffffffffffffffffffffffffffffffffffffffff1681526020018373ffffffffffffffffffffffffffffffffffffffff1673ffffffffffffffffffffffffffffffffffffffff168152602001828152602001935050505060405180910390a16124fa8261265a565b505b5b5050565b600080600460008573ffffffffffffffffffffffffffffffffffffffff1673ffffffffffffffffffffffffffffffffffffffff16815260200190815260200160002060040154905080600560003373ffffffffffffffffffffffffffffffffffffffff1673ffffffffffffffffffffffffffffffffffffffff168152602001908152602001600020600101600082825403925050819055506064601982028115156125a857fe5b04600460008673ffffffffffffffffffffffffffffffffffffffff1673ffffffffffffffffffffffffffffffffffffffff1681526020019081526020016000206001016000828254039250508190555080600660008581526020019081526020016000206004016000828254019250508190555060646019820281151561262b57fe5b046006600085815260200190815260200160002060050160008282540192505081905550600191505092915050565b6000801515600360009054906101000a900460ff16151514151561267d57600080fd5b6000600181111561268a57fe5b6006600084815260200190815260200160002060060160039054906101000a900460ff1660018111156126b957fe5b14151561277a576040517f08c379a00000000000000000000000000000000000000000000000000000000081526004018080602001828103825260498152602001807f45697468657220746865206c6573736f6e20686173206e6f74206265656e206381526020017f6f6e6669726d6564206f7220796f7527726520747279696e6720746f2073746581526020017f616c206d6f6e65792e000000000000000000000000000000000000000000000081525060600191505060405180910390fd5b3373ffffffffffffffffffffffffffffffffffffffff166006600084815260200190815260200160002060010160009054906101000a900473ffffffffffffffffffffffffffffffffffffffff1673ffffffffffffffffffffffffffffffffffffffff16148061284b57503373ffffffffffffffffffffffffffffffffffffffff166006600084815260200190815260200160002060000160009054906101000a900473ffffffffffffffffffffffffffffffffffffffff1673ffffffffffffffffffffffffffffffffffffffff16145b15156128e5576040517f08c379a00000000000000000000000000000000000000000000000000000000081526004018080602001828103825260348152602001807f4974206c6f6f6b73206c696b6520796f75277265206e6569746865722074686581526020017f2073747564656e74206f7220746561636865722e00000000000000000000000081525060400191505060405180910390fd5b600060066000848152602001908152602001600020600501549050600060066000858152602001908152602001600020600401819055506000600660008581526020019081526020016000206005018190555060016006600085815260200190815260200160002060060160036101000a81548160ff0219169083600181111561296b57fe5b021790555060006064607d830281151561298157fe5b04905080600460006006600088815260200190815260200160002060000160009054906101000a900473ffffffffffffffffffffffffffffffffffffffff1673ffffffffffffffffffffffffffffffffffffffff1673ffffffffffffffffffffffffffffffffffffffff1681526020019081526020016000206001016000828254019250508190555060019250505091905056fe4974207365656d7320746861742065697468657220796f7520646f6e2774206861766520616e206163636f756e742c20796f752041435455414c4c592041524520544845205455544f52202d2053415645593f2c206f7220796f7572207475746f7220646f65736e2774206861766520746865207265717569726564207374616b6520616d6f756e742ea165627a7a7230582024a1da92e0a99fcdf500a25484d4e5c7ce0df8d9b67ab7b992a0f66d61706cec0029",
  "source": "    pragma solidity ^0.5.0;\n\n    /// @title A decentralized language exchange application\n    /// @author Huckleberry J. Hopper\n    /// @notice Creates and handles tutor and student accounts/funds, stakes funds, and confirms lesson logic for fund transfer\n    /// @dev All functions calls are handled within this one contract and this is not production ready\n\n    contract Intercambio {\n\n    bool marketexists; ///tells us if the market exists \n    address mktOwner; ///state var that tells us who owns the marketplace\n    address mktAddress; ///tells us who owns the market \n    uint mktcreationcount; ///keeps track of how many time this contract instance is called\n    bool public contractPaused = false; ///the bool state var for the circuit breaker\n\n    mapping (address => Seller) sellers; ///mapping used to access the struct Seler\n    mapping (address => Buyer) buyers; ///mapping used to access the struct Buyer\n    mapping (bytes32 => lessonStruct) lessonmapping; ///mapping used to access the struct lessonStruct\n\n    address[] sellersAddressesArray; ///stores the addresses of the teachers for reference in the mapping\n    address[] buyerAddressesArray;///stores the addresses of the students for reference in the mapping\n    bytes32[] lessonAddressesArray; ///stores the addresses of the lessons\n\n    enum Status { Scheduled, Closed }\n\n\n    /// @notice a tutor with a series of attributes\n    struct Seller {\n        address sellerAddress;\n        uint sellerFunds; \n        bool existance;\n        uint lessonCount;\n        uint hourlyRate;\n    }\n\n    /// @notice a student with a series of essential characteristics\n    struct Buyer {\n        address buyerAddress;\n        uint buyerFunds; \n        bool started;\n    }\n\n    /// @notice a lesson with a series of attributes\n    struct lessonStruct {   \n        address tutor; ///address of the tutor\n        address student; ///address of the student\n        bytes32 lessonAddress; ///SHA256 address of the student and teachers lesson plus a rand var?\n        uint rate;\n        uint studentstake; ///amount of ether staked by student \n        uint tutorstake; ///amount of ether staked by teacher\n        bool scheduled; ///confirmed scheduled\n        bool studentconfirmed; ///student confirms lesson\n        bool tutorconfirmed; ///teacher  confirms lesson\n        Status lessonStatus; ///lesson is confirmed\n        uint time;\n    }\n\n    event tutorAccountCreated (address tutor, uint hourlyRate, uint depositAmount); /// front end knows tutor account created\n    event studentAccountCreated (address student, uint depositAmount); /// front end knows tutor account created\n    event studentAccountFunded(address studentAddress, uint fundAmount); ///lets front end know that a student's account was funded\n    event studentFundsWithdrawn(address studentAddress, uint amount); ///lets front end know that a tutor's or student's funds were withdrawn\n    event tutorFundsWithdrawn(address tutorAddress, uint amount); ///lets front end know a tutor has withdrawn funds\n    event lessonScheduled(address tutorAddress, address studentAddress, bytes32 lessonAddress); ///lets front end know lesson was scheduled\n    event studentConfirmedLesson(address student); ///lets front end know the student confirmed the lesson has happened\n    event tutorConfirmedLesson(address tutor); ///lets the front end know the tutor has confirme the lesson has happened\n    event lessonLogConfirmed(address tutor, address student, bytes32 lessonAddress); ///lets the front end know the lesson is officially confirmed\n    event transferCompleted(address tutor, address student, uint transferAmt, bytes32 lessonAddress);\n\n    /// @notice ensures that the market for language exchange actually exists \n    modifier creation () {\n        if (marketexists == true) {\n            _; } else {\n                revert();\n            }\n    }\n\n    /// @notice ensures that only the market owner can do this \n    modifier onlyOwner() {\n        require(msg.sender == mktOwner); { _;} \n    }\n\n    /// @notice circuitBreaker to see if the function is paused \n    modifier checkIfPaused() {\n        require(contractPaused == false);\n        _;\n    }\n\n    /// @notice used to prevent integer overflow where users can infput\n    /// @dev notice the number. It's the current exchange rate of 100 dollars an hour\n    modifier stopIntOverflow(uint input) {\n        require(input < 1568026973464049984 && input > 0); \n        _;\n    }\n\n    /// @notice ensures that the market for students and teachers can only be created one time\n    modifier onlyOnce() {\n        if (mktcreationcount >= 1) {\n            revert();\n        } else { \n            _; \n        }\n    }\n\n    /// @notice ensures that whatever function is called is called 60 seconds after it is scheduled\n    modifier allowed(bytes32 lesson) {\n                if(now > lessonmapping[lesson].time + 60){\n                        _;\n                }\n        }\n\n\n    /// @notice constructor that sets the market information\n    /// @dev assigns a market owner who has the ability to flip the circuit breaker \n    constructor () public onlyOnce() {\n        marketexists = true; \n        mktAddress = msg.sender;\n        mktcreationcount = 1; \n        mktOwner = msg.sender;\n    } \n\n\n    /// @notice  flips a state var that pauses all value transfer functions\n    /// @dev used as a defense against malicious users for in the instance that the contract is compromised\n    function circuitPauseAllFundMovement() public onlyOwner() { // onlyOwner can call\n        if (contractPaused == false) { contractPaused = true; }\n        else { contractPaused = false; }\n    }\n\n    /// @notice creates a tutor with a series of attributes\n    /// @dev the unit conversions for setRate are in wei by default \n    function createTutor(uint setRate) payable public stopIntOverflow(setRate) {\n        require(msg.value > setRate, \"You have to deposit at least an hours worth of stake.\");\n        require(sellers[msg.sender].existance != true, \"There is already a tutor at this address.\"); /// makes sure the person doesn't already have an account\n        Intercambio.Seller storage tutor = sellers[msg.sender]; \n        tutor.sellerAddress = msg.sender;\n        tutor.hourlyRate = setRate;\n        tutor.sellerFunds = msg.value;\n        tutor.existance = true;\n        sellersAddressesArray.push(msg.sender);\n        emit tutorAccountCreated(msg.sender, setRate, msg.value); /// emits tutor creatio,n event\n    }\n\n    /// @notice creates a language learner with a series of attributes\n    /// @dev notice the bool value line 135 - this is used for reference when scheduling lesson\n    function createStudent() payable public returns (uint) {\n        require(buyers[msg.sender].started != true, \"There is already a student at this address.\"); ///checks to see if there is already a student at this address\n        Intercambio.Buyer storage student = buyers[msg.sender]; ///creates and instance of student and assigned _address to mapping\n        student.buyerAddress = msg.sender; ///assigns address to struct\n        student.buyerFunds = msg.value; /// assigns initial balance of student funds to the value in the transaction\n        student.started = true; ///assigns bool to true to prove for later reference\n        buyerAddressesArray.push(msg.sender); ///adds the new address to the student addresses array\n        emit studentAccountCreated(msg.sender, msg.value); ///tells the front end a new student has been created\n        return student.buyerFunds;\n\n    }\n\n    /// @notice funds a student account given that the account exists\n    /// @dev default storage value is in wei. Users can deposit any value conversion they wish\n    function fundStudentAccount () public payable checkIfPaused() returns (bool) {\n        require(buyers[msg.sender].started == true && buyers[msg.sender].buyerAddress == msg.sender); ///requires the person calling the function to already have a student address and it exists\n        buyers[msg.sender].buyerFunds += msg.value; ///assigns the value sent along with the transaction to be stored in this contract\n        return true;\n        emit studentAccountFunded(msg.sender, msg.value); ///tells front end account has been funded\n    }\n    /// @notice allows the students to withdraw their funds \n    /// @dev withdrawl amount is, by default, wei\n    function studentWithdrawTotalFunds(uint Amount) public payable stopIntOverflow(Amount) {\n        require(msg.sender == buyers[msg.sender].buyerAddress && buyers[msg.sender].buyerFunds >= Amount);\n        buyers[msg.sender].buyerFunds -= Amount;\n        (bool success, ) = msg.sender.call.value(Amount)(\"\");\n        require(success, \"Transfer failed.\");\n        emit studentFundsWithdrawn(msg.sender, Amount);\n        }\n\n    /// @notice allows the tutor to withdraw their funds    \n    /// @dev all amounts are, by defaul, wei\n    function tutorWithdrawFunds(uint Amount) public payable stopIntOverflow(Amount) {\n        require(msg.sender == sellers[msg.sender].sellerAddress && sellers[msg.sender].sellerFunds >= Amount);\n        sellers[msg.sender].sellerFunds -= Amount;\n        (bool success, ) = msg.sender.call.value(Amount)(\"\");\n        require(success, \"Transfer failed.\");\n        emit tutorFundsWithdrawn(msg.sender, Amount);\n    }\n\n    /// @notice this function schedules a lesson and then it also trustakes fundstr\n    /// @dev notice the the keccak function to create a unique lesson ID. This can be improved.\n    function scheduleLesson(address tutor) public payable returns(bytes32, uint) { \n        require((buyers[msg.sender].started == true && tutor != msg.sender && sellers[tutor].sellerFunds > sellers[tutor].hourlyRate), \"It seems that either you don't have an account, you ACTUALLY ARE THE TUTOR - SAVEY?, or your tutor doesn't have the required stake amount.\"); ///require the tutor and student both exist and they aren't the same\n        sellers[tutor].lessonCount += 1; ///adds a lesson count to the seller's struct for hash\n        bytes32 lessonAddress = keccak256(abi.encode(tutor, msg.sender, sellers[tutor].lessonCount));  ///combines student and tutor's address together to create lesson\n        lessonmapping[lessonAddress].tutor = tutor; ///sets the tutor of the lesson to the tutor's address\n        lessonmapping[lessonAddress].student = msg.sender; ///sets the student of the lesson to the student's address \n        lessonmapping[lessonAddress].rate = sellers[tutor].hourlyRate; ///changes the lesson struct to reference the hourly rate for later transfer -- NEED TO WORK ON THIS\n        uint timeScheduled = now;\n        lessonmapping[lessonAddress].lessonStatus = Status.Scheduled;\n         lessonmapping[lessonAddress].time = timeScheduled;\n        if(sellers[tutor].sellerFunds < sellers[tutor].hourlyRate) { \n            lessonAddressesArray.push(lessonAddress);\n            return (lessonAddress, timeScheduled); \n            \n        } else {\n            stakeFunds(tutor, lessonAddress); ///calls stake funds to put funds in escro. Student stakes 100% of funds and teacher stakes 25%\n            lessonAddressesArray.push(lessonAddress);\n            return (lessonAddress, timeScheduled); /// tells us that lines 30 to 35 worked and tells us that \n            }\n        lessonAddressesArray.push(lessonAddress); ///adds the lesson to the lesson array for storage and later reference.\n        emit lessonScheduled(tutor, msg.sender, lessonAddress);    \n    } \n\n    /// @notice this function takes the students funds out of their account, as well as the tutors, as a promise that it'll happen\n    function stakeFunds(address tutorAddress, bytes32 lessonaddress) private returns(bool) { \n        uint stake  = sellers[tutorAddress].hourlyRate; ///stake amount is the hourlyRate set by the tutor\n        buyers[msg.sender].buyerFunds -= stake; ///pulls stake amount from buyer and buyer stakes 100% of stake amount\n        sellers[tutorAddress].sellerFunds -= (stake * 25) /100; ///pulls stake amount from seller and seller stakes 20% of stake amount\n        lessonmapping[lessonaddress].studentstake += stake; ///adds the students stake to the contract struct\n        lessonmapping[lessonaddress].tutorstake += (stake *25) / 100; ///adds the teacher's stake to the contract struct\n        return true; ///returns bool to indicate success\n        }\n\n\n\n    /// @notice this function allows tutors to confirm the lesson \n    /// @dev this, and the tutor conifirmation, are the two functions used to enable transferFunds()\n    function tutorConfirmLesson (bytes32 lessonAddress) public allowed(lessonAddress) returns (bool) { \n        require(lessonmapping[lessonAddress].tutor == msg.sender, \"You are not the tutor.\"); ///requires the tutor confirming to be the tutor\n        lessonmapping[lessonAddress].tutorconfirmed = true; /// changes the state variable to true\n        ///if the tutor has also confirmed it, call lessonConfirmed\n        if (lessonmapping[lessonAddress].studentconfirmed == true) {\n            lessonConfirmed(lessonAddress);\n            emit tutorConfirmedLesson(msg.sender);\n        } else {\n            return true;\n            emit tutorConfirmedLesson(msg.sender);\n            emit lessonLogConfirmed(msg.sender, lessonmapping[lessonAddress].student, lessonAddress);\n        }\n    }\n    /// @notice this function allows students to confirm the lesson\n    function studentConfirmLesson (bytes32 lessonAddress) public allowed (lessonAddress) returns (bool) { \n        require(lessonmapping[lessonAddress].student == msg.sender, \"You are not the student of this lesson.\");     ///requires the student confirming to be the student\n        lessonmapping[lessonAddress].studentconfirmed = true;\n        emit studentConfirmedLesson(msg.sender); ///lets the front end know the student has confirmed the lesson\n        if (lessonmapping[lessonAddress].tutorconfirmed == true) {\n            lessonConfirmed(lessonAddress);\n        } else {\n            return true;\n        }\n    }\n\n    /// @notice confirms that the lesson has been confirmed prior to transfer\n    function lessonConfirmed (bytes32 lessonAddress) allowed(lessonAddress) internal {\n        require(lessonmapping[lessonAddress].lessonStatus != Status.Closed); \n        //if it is more than a month after the scheduled lesson time, confirm it as true, if not, require both tutor and student to confirm\n        if(now > lessonmapping[lessonAddress].time + 2700000) { /// if now is greater than the schedule time + 30 days (in seconds) autoconfirm the lesson happened\n            lessonmapping[lessonAddress].lessonStatus = Status.Scheduled;\n            emit lessonLogConfirmed(lessonmapping[lessonAddress].tutor, lessonmapping[lessonAddress].student, lessonAddress);\n            transferFunds(lessonAddress); ///autotransfers the funds to the tutor's account\n        } else {\n        require (lessonmapping[lessonAddress].studentconfirmed == true && lessonmapping[lessonAddress].tutorconfirmed == true); ///requires both student and tutors confirm, then either can call\n        lessonmapping[lessonAddress].lessonStatus = Status.Scheduled; /// changes the state variable to true\n        emit lessonLogConfirmed(lessonmapping[lessonAddress].tutor, lessonmapping[lessonAddress].student, lessonAddress);\n        transferFunds(lessonAddress); ///autotransfers the funds to the tutor's account\n        }\n    }\n\n    /// @notice tranfers funds between students and tutors after the lesson\n    /// @return returns bool to confirm that the transfer has occurred\n    function transferFunds(bytes32 lesson) internal checkIfPaused() returns (bool) {\n        require(lessonmapping[lesson].lessonStatus == Status.Scheduled, \"Either the lesson has not been confirmed or you're trying to steal money.\"); ///requires lesson is confirmed (and switch hasn't been flipped)\n        require((lessonmapping[lesson].student == msg.sender || lessonmapping[lesson].tutor == msg.sender), \"It looks like you're neither the student or teacher.\"); ///requires the person calling is the student or tutor\n        uint tutorAmt = lessonmapping[lesson].tutorstake; ///sets the tutor amount for \n        lessonmapping[lesson].studentstake = 0; ///sets the stake amount to 0\n        lessonmapping[lesson].tutorstake = 0; ///sets the stake amount to 0\n        lessonmapping[lesson].lessonStatus = Status.Closed; ///flips the switch so it can't be called again.\n        uint tutorDeposit =  (tutorAmt * 125) /100;\n        sellers[lessonmapping[lesson].tutor].sellerFunds += tutorDeposit; /// reconciles the stakes and adds it back to the tutor's balance (their stake plus student stake (1 hour)\n        return true; /// returns true to represent that the transfer has occured\n        emit transferCompleted(lessonmapping[lesson].tutor, lessonmapping[lesson].student, tutorDeposit, lesson);\n    }  \n\n    /// @notice see the info about the lesson\n    /// @return the addresses of all of the lessons in total\n    function getLessonInfo (bytes32 lessonAddress) public view returns (address, address, bytes32, uint, uint, Status) {\n        return (lessonmapping[lessonAddress].tutor, lessonmapping[lessonAddress].student, lessonAddress, lessonmapping[lessonAddress].studentstake, lessonmapping[lessonAddress].tutorstake, lessonmapping[lessonAddress].lessonStatus); \n    }\n\n    /// @notice allows us to pull the teacher's information from the blockchain\n    /// @return returns the tutor's total funds and hourly rate\n    function getTutorInfo (address _address) public view returns (uint, uint) {\n        return (sellers[_address].sellerFunds, sellers[_address].hourlyRate);\n    }\n\n    /// @notice allows us to pull the students info from the blockchain\n    /// @return the student's address and total funds\n    function getStudentInfo (address _address) public view returns (address, uint) {\n        return (buyers[_address].buyerAddress, buyers[_address].buyerFunds);\n    }\n\n    /// @notice see the adddresses of all the tutors\n    /// @return a list of the tutor's total adddresses\n    function getAllTutors () public view returns (address[] memory ) {\n        return sellersAddressesArray;\n    }\n\n    /// @notice see the address of all the students\n    /// @return a list of the all the tutor addresses\n    function getAllStudents () public view returns (address[] memory ) {\n        return buyerAddressesArray;\n    }\n\n    /// @notice gets all the lessons\n    function getAllLessons () public view returns (bytes32[] memory ) {\n        return lessonAddressesArray;\n    }\n\n    /// @notice see info of the user that ownes the market\n    /// @return the market exists bool, who the owner is, what address, and how many times it has been counted\n    function getMktOwner () public view returns (bool, address, address, uint) {\n        return (marketexists, mktOwner, mktAddress, mktcreationcount);\n    }\n\n    /// @notice tells us the status of the circuit breaker\n    /// @return the bool that tells us if the contract is paused\n    function getCircuitBreakerInfo() public view returns (bool) {\n        return contractPaused;\n    }\n\n    function () external {revert();}\n\n    }\n\n\n",
  "sourcePath": "/home/huckleberry/Documents/Truffle/PlugVersion/contracts/Intercambio.sol",
  "compiler": {
    "name": "solc",
    "version": "0.5.0+commit.1d4f565a.Emscripten.clang"
  },
  "schemaVersion": "3.0.0",
  "updatedAt": "2020-01-29T17:16:44.833Z",
  "devdoc": {
    "author": "Huckleberry J. Hopper",
    "details": "All functions calls are handled within this one contract and this is not production ready",
    "methods": {
      "circuitPauseAllFundMovement()": {
        "details": "used as a defense against malicious users for in the instance that the contract is compromised"
      },
      "constructor": {
        "details": "assigns a market owner who has the ability to flip the circuit breaker "
      },
      "createStudent()": {
        "details": "notice the bool value line 135 - this is used for reference when scheduling lesson"
      },
      "createTutor(uint256)": {
        "details": "the unit conversions for setRate are in wei by default "
      },
      "fundStudentAccount()": {
        "details": "default storage value is in wei. Users can deposit any value conversion they wish"
      },
      "getAllStudents()": {
        "return": "a list of the all the tutor addresses"
      },
      "getAllTutors()": {
        "return": "a list of the tutor's total adddresses"
      },
      "getCircuitBreakerInfo()": {
        "return": "the bool that tells us if the contract is paused"
      },
      "getLessonInfo(bytes32)": {
        "return": "the addresses of all of the lessons in total"
      },
      "getMktOwner()": {
        "return": "the market exists bool, who the owner is, what address, and how many times it has been counted"
      },
      "getStudentInfo(address)": {
        "return": "the student's address and total funds"
      },
      "getTutorInfo(address)": {
        "return": "returns the tutor's total funds and hourly rate"
      },
      "scheduleLesson(address)": {
        "details": "notice the the keccak function to create a unique lesson ID. This can be improved."
      },
      "studentWithdrawTotalFunds(uint256)": {
        "details": "withdrawl amount is, by default, wei"
      },
      "tutorConfirmLesson(bytes32)": {
        "details": "this, and the tutor conifirmation, are the two functions used to enable transferFunds()"
      },
      "tutorWithdrawFunds(uint256)": {
        "details": "all amounts are, by defaul, wei"
      }
    },
    "title": "A decentralized language exchange application"
  },
  "userdoc": {
    "methods": {
      "circuitPauseAllFundMovement()": {
        "notice": "flips a state var that pauses all value transfer functions"
      },
      "constructor": "constructor that sets the market information",
      "createStudent()": {
        "notice": "creates a language learner with a series of attributes"
      },
      "createTutor(uint256)": {
        "notice": "creates a tutor with a series of attributes"
      },
      "fundStudentAccount()": {
        "notice": "funds a student account given that the account exists"
      },
      "getAllLessons()": {
        "notice": "gets all the lessons"
      },
      "getAllStudents()": {
        "notice": "see the address of all the students"
      },
      "getAllTutors()": {
        "notice": "see the adddresses of all the tutors"
      },
      "getCircuitBreakerInfo()": {
        "notice": "tells us the status of the circuit breaker"
      },
      "getLessonInfo(bytes32)": {
        "notice": "see the info about the lesson"
      },
      "getMktOwner()": {
        "notice": "see info of the user that ownes the market"
      },
      "getStudentInfo(address)": {
        "notice": "allows us to pull the students info from the blockchain"
      },
      "getTutorInfo(address)": {
        "notice": "allows us to pull the teacher's information from the blockchain"
      },
      "scheduleLesson(address)": {
        "notice": "this function schedules a lesson and then it also trustakes fundstr"
      },
      "studentConfirmLesson(bytes32)": {
        "notice": "this function allows students to confirm the lesson"
      },
      "studentWithdrawTotalFunds(uint256)": {
        "notice": "allows the students to withdraw their funds "
      },
      "tutorConfirmLesson(bytes32)": {
        "notice": "this function allows tutors to confirm the lesson "
      },
      "tutorWithdrawFunds(uint256)": {
        "notice": "allows the tutor to withdraw their funds    "
      }
    },
    "notice": "Creates and handles tutor and student accounts/funds, stakes funds, and confirms lesson logic for fund transfer"
  }
}